{
    "contractName": "RoomReservations",
    "abi": [
        {
            "inputs": [],
            "stateMutability": "nonpayable",
            "type": "constructor"
        },
        {
            "inputs": [
                {
                    "internalType": "address",
                    "name": "_newAdmin",
                    "type": "address"
                }
            ],
            "name": "addAdmin",
            "outputs": [],
            "stateMutability": "nonpayable",
            "type": "function"
        },
        {
            "inputs": [
                {
                    "internalType": "address",
                    "name": "_newRoler",
                    "type": "address"
                },
                {
                    "internalType": "uint256",
                    "name": "role",
                    "type": "uint256"
                }
            ],
            "name": "addRole",
            "outputs": [],
            "stateMutability": "nonpayable",
            "type": "function"
        },
        {
            "inputs": [],
            "name": "addRoom",
            "outputs": [
                {
                    "internalType": "bool",
                    "name": "",
                    "type": "bool"
                }
            ],
            "stateMutability": "nonpayable",
            "type": "function"
        },
        {
            "inputs": [
                {
                    "internalType": "address",
                    "name": "_newOwner",
                    "type": "address"
                }
            ],
            "name": "changeOwner",
            "outputs": [],
            "stateMutability": "nonpayable",
            "type": "function"
        },
        {
            "inputs": [
                {
                    "internalType": "address",
                    "name": "_potentialAdmin",
                    "type": "address"
                }
            ],
            "name": "isAdmin",
            "outputs": [
                {
                    "internalType": "bool",
                    "name": "",
                    "type": "bool"
                }
            ],
            "stateMutability": "view",
            "type": "function"
        },
        {
            "inputs": [
                {
                    "internalType": "address",
                    "name": "_potentialOwner",
                    "type": "address"
                }
            ],
            "name": "isOwner",
            "outputs": [
                {
                    "internalType": "bool",
                    "name": "",
                    "type": "bool"
                }
            ],
            "stateMutability": "view",
            "type": "function"
        },
        {
            "inputs": [
                {
                    "internalType": "address",
                    "name": "_potentialRoler",
                    "type": "address"
                },
                {
                    "internalType": "uint256",
                    "name": "_roleToCheck",
                    "type": "uint256"
                }
            ],
            "name": "isRole",
            "outputs": [
                {
                    "internalType": "bool",
                    "name": "",
                    "type": "bool"
                }
            ],
            "stateMutability": "view",
            "type": "function"
        },
        {
            "inputs": [],
            "name": "owner",
            "outputs": [
                {
                    "internalType": "address",
                    "name": "",
                    "type": "address"
                }
            ],
            "stateMutability": "view",
            "type": "function"
        },
        {
            "inputs": [
                {
                    "internalType": "address",
                    "name": "_toBeRemoved",
                    "type": "address"
                }
            ],
            "name": "removeRole",
            "outputs": [],
            "stateMutability": "nonpayable",
            "type": "function"
        },
        {
            "inputs": [],
            "name": "renounceRole",
            "outputs": [],
            "stateMutability": "nonpayable",
            "type": "function"
        },
        {
            "inputs": [],
            "name": "stopBeingOwner",
            "outputs": [],
            "stateMutability": "nonpayable",
            "type": "function"
        }
    ],
    "bytecode": "6080604052348015600e575f80fd5b50601633601a565b60b5565b5f546001600160a01b0380831691160360945760405162461bcd60e51b815260206004820152603260248201527f416363657373436f6e74726f6c3a204f776e65722063616e206e6f742062652060448201527139b2ba103a37903a3432b6b9b2b63b32b99760711b606482015260840160405180910390fd5b5f80546001600160a01b0319166001600160a01b0392909216919091179055565b610905806100c25f395ff3fe608060405234801561000f575f80fd5b50600436106100a6575f3560e01c80637d41199b1161006e5780637d41199b146101605780637fde1c8a146101685780638da5cb5b1461017b578063a6f9dae114610195578063b5308421146101a8578063dfe23f84146101b0575f80fd5b80630d7c5ba9146100aa57806324d7806c146100eb5780632f54bf6e146101175780634762155d14610138578063704802751461014d575b5f80fd5b6100d66100b83660046107f5565b6001600160a01b03919091165f908152600160205260409020541490565b60405190151581526020015b60405180910390f35b6100d66100f936600461081d565b6001600160a01b03165f908152600160208190526040909120541490565b6100d661012536600461081d565b5f546001600160a01b0391821691161490565b61014b61014636600461081d565b6101b8565b005b61014b61015b36600461081d565b610307565b61014b610345565b61014b6101763660046107f5565b610382565b5f546040516001600160a01b0390911681526020016100e2565b61014b6101a336600461081d565b6103dc565b6100d6610417565b61014b610450565b5f546001600160a01b0316336001600160a01b031614806101e85750335f90815260016020819052604090912054145b61020d5760405162461bcd60e51b81526004016102049061083d565b60405180910390fd5b6001600160a01b03811661027c5760405162461bcd60e51b815260206004820152603060248201527f416363657373436f6e74726f6c3a20596f752063616e206e6f742072656d6f7660448201526f32903a343290181030b2323932b9b99760811b6064820152608401610204565b5f546001600160a01b03908116908216036102ee5760405162461bcd60e51b815260206004820152602c60248201527f416363657373436f6e74726f6c3a20596f752063616e206e6f742072656d6f7660448201526b32903a34329037bbb732b91760a11b6064820152608401610204565b6001600160a01b03165f90815260016020526040812055565b5f546001600160a01b0316336001600160a01b0316146103395760405162461bcd60e51b81526004016102049061088b565b610342816104db565b50565b5f546001600160a01b0316336001600160a01b0316146103775760405162461bcd60e51b81526004016102049061088b565b6103805f6105dc565b565b5f546001600160a01b0316336001600160a01b031614806103b25750335f90815260016020819052604090912054145b6103ce5760405162461bcd60e51b81526004016102049061083d565b6103d88282610674565b5050565b5f546001600160a01b0316336001600160a01b03161461040e5760405162461bcd60e51b81526004016102049061088b565b610342816105dc565b5f80546001600160a01b0316336001600160a01b03161461044a5760405162461bcd60e51b81526004016102049061088b565b50600190565b335f9081526001602052604081205490036104ca5760405162461bcd60e51b815260206004820152603460248201527f416363657373436f6e74726f6c3a2054686973206163636f756e7420686173206044820152733737903937b632903a37903932b737bab731b29760611b6064820152608401610204565b335f90815260016020526040812055565b6001600160a01b0381166105465760405162461bcd60e51b815260206004820152602c60248201527f416363657373436f6e74726f6c3a204163636f756e742063616e206e6f74206260448201526b3290181030b2323932b9b99760a11b6064820152608401610204565b6001600160a01b0381165f9081526001602081905260409091205490036105c05760405162461bcd60e51b815260206004820152602860248201527f416363657373436f6e74726f6c3a204163636f756e7420697320616c726561646044820152673c9030b236b4b71760c11b6064820152608401610204565b6001600160a01b03165f90815260016020819052604090912055565b5f546001600160a01b038083169116036106535760405162461bcd60e51b815260206004820152603260248201527f416363657373436f6e74726f6c3a204f776e65722063616e206e6f742062652060448201527139b2ba103a37903a3432b6b9b2b63b32b99760711b6064820152608401610204565b5f80546001600160a01b0319166001600160a01b0392909216919091179055565b805f036106d95760405162461bcd60e51b815260206004820152602d60248201527f416363657373436f6e74726f6c3a2043616e206e6f7420736574206163636f7560448201526c373a103a379018103937b6329760991b6064820152608401610204565b6001600160a01b0382166107485760405162461bcd60e51b815260206004820152603060248201527f416363657373436f6e74726f6c3a204163636f756e742063616e206e6f74206260448201526f32903a343290181030b2323932b9b99760811b6064820152608401610204565b6001600160a01b0382165f908152600160205260409020548190036107bf5760405162461bcd60e51b815260206004820152602760248201527f416363657373436f6e74726f6c3a204163636f756e7420697320616c726561646044820152663c903937b6329760c91b6064820152608401610204565b6001600160a01b039091165f90815260016020526040902055565b80356001600160a01b03811681146107f0575f80fd5b919050565b5f8060408385031215610806575f80fd5b61080f836107da565b946020939093013593505050565b5f6020828403121561082d575f80fd5b610836826107da565b9392505050565b6020808252602e908201527f416363657373436f6e74726f6c3a204d757374206265206f776e6572206f722060408201526d30b236b4b7103a379031b0b6361760911b606082015260800190565b60208082526024908201527f416363657373436f6e74726f6c3a2041646472657373206973206e6f74206f776040820152633732b91760e11b60608201526080019056fea2646970667358221220c0bba48036b771f9d08f3658d9fccac972c15d8896d9b86da9477d9fda1c230e64736f6c63430008190033",
    "sourcePath": "c:/Users/jorda/Documents/Freelance Projects/room_reservations_polygon_sc/contracts/RoomReservations.sol",
    "compiler": {
        "name": "solc",
        "version": "0.8.25+commit.b61c2a91"
    },
    "functionHashes": {
        "addAdmin(address)": "70480275",
        "addRole(address,uint256)": "7fde1c8a",
        "addRoom()": "b5308421",
        "changeOwner(address)": "a6f9dae1",
        "isAdmin(address)": "24d7806c",
        "isOwner(address)": "2f54bf6e",
        "isRole(address,uint256)": "0d7c5ba9",
        "owner()": "8da5cb5b",
        "removeRole(address)": "4762155d",
        "renounceRole()": "dfe23f84",
        "stopBeingOwner()": "7d41199b"
    },
    "gasEstimates": {
        "creation": {
            "codeDepositCost": "461800",
            "executionCost": "26952",
            "totalCost": "488752"
        },
        "external": {
            "addAdmin(address)": "27023",
            "addRole(address,uint256)": "29196",
            "addRoom()": "2543",
            "changeOwner(address)": "28969",
            "isAdmin(address)": "2564",
            "isOwner(address)": "2523",
            "isRole(address,uint256)": "2563",
            "owner()": "2343",
            "removeRole(address)": "11998",
            "renounceRole()": "7513",
            "stopBeingOwner()": "28743"
        }
    }
}