{
  "abi": [
    {
      "inputs": [],
      "stateMutability": "nonpayable",
      "type": "constructor"
    },
    {
      "anonymous": false,
      "inputs": [
        {
          "indexed": true,
          "internalType": "address",
          "name": "previousOwner",
          "type": "address"
        },
        {
          "indexed": true,
          "internalType": "address",
          "name": "newOwner",
          "type": "address"
        }
      ],
      "name": "OwnershipTransferred",
      "type": "event"
    },
    {
      "stateMutability": "payable",
      "type": "fallback"
    },
    {
      "inputs": [
        {
          "internalType": "string",
          "name": "_title",
          "type": "string"
        },
        {
          "internalType": "string",
          "name": "_physicalAddress",
          "type": "string"
        },
        {
          "internalType": "string",
          "name": "_image",
          "type": "string"
        },
        {
          "internalType": "uint256",
          "name": "_price",
          "type": "uint256"
        },
        {
          "internalType": "bool",
          "name": "_canReserve",
          "type": "bool"
        }
      ],
      "name": "addRoom",
      "outputs": [],
      "stateMutability": "nonpayable",
      "type": "function"
    },
    {
      "inputs": [
        {
          "internalType": "uint256",
          "name": "roomId",
          "type": "uint256"
        },
        {
          "internalType": "uint256",
          "name": "reservationId",
          "type": "uint256"
        }
      ],
      "name": "deleteReservation",
      "outputs": [],
      "stateMutability": "nonpayable",
      "type": "function"
    },
    {
      "inputs": [],
      "name": "getPaymentsLength",
      "outputs": [
        {
          "internalType": "uint256",
          "name": "",
          "type": "uint256"
        }
      ],
      "stateMutability": "view",
      "type": "function"
    },
    {
      "inputs": [],
      "name": "getReservationsLength",
      "outputs": [
        {
          "internalType": "uint256",
          "name": "",
          "type": "uint256"
        }
      ],
      "stateMutability": "view",
      "type": "function"
    },
    {
      "inputs": [],
      "name": "getRoomsLength",
      "outputs": [
        {
          "internalType": "uint256",
          "name": "",
          "type": "uint256"
        }
      ],
      "stateMutability": "view",
      "type": "function"
    },
    {
      "inputs": [
        {
          "internalType": "uint256",
          "name": "reservationId",
          "type": "uint256"
        }
      ],
      "name": "makePayment",
      "outputs": [],
      "stateMutability": "payable",
      "type": "function"
    },
    {
      "inputs": [
        {
          "internalType": "uint256",
          "name": "roomId",
          "type": "uint256"
        },
        {
          "internalType": "uint256",
          "name": "startDate",
          "type": "uint256"
        },
        {
          "internalType": "uint256",
          "name": "endDate",
          "type": "uint256"
        },
        {
          "internalType": "bool",
          "name": "checkReserved",
          "type": "bool"
        }
      ],
      "name": "makeReservation",
      "outputs": [],
      "stateMutability": "nonpayable",
      "type": "function"
    },
    {
      "inputs": [],
      "name": "owner",
      "outputs": [
        {
          "internalType": "address",
          "name": "",
          "type": "address"
        }
      ],
      "stateMutability": "view",
      "type": "function"
    },
    {
      "inputs": [
        {
          "internalType": "uint256",
          "name": "",
          "type": "uint256"
        }
      ],
      "name": "payments",
      "outputs": [
        {
          "internalType": "address",
          "name": "payer",
          "type": "address"
        },
        {
          "internalType": "address",
          "name": "payee",
          "type": "address"
        },
        {
          "internalType": "uint256",
          "name": "datePaid",
          "type": "uint256"
        },
        {
          "internalType": "uint256",
          "name": "reservationId",
          "type": "uint256"
        }
      ],
      "stateMutability": "view",
      "type": "function"
    },
    {
      "inputs": [],
      "name": "renounceOwnership",
      "outputs": [],
      "stateMutability": "nonpayable",
      "type": "function"
    },
    {
      "inputs": [
        {
          "internalType": "uint256",
          "name": "",
          "type": "uint256"
        }
      ],
      "name": "reservations",
      "outputs": [
        {
          "internalType": "address",
          "name": "reserver",
          "type": "address"
        },
        {
          "internalType": "uint256",
          "name": "roomId",
          "type": "uint256"
        },
        {
          "internalType": "uint256",
          "name": "startDate",
          "type": "uint256"
        },
        {
          "internalType": "uint256",
          "name": "endDate",
          "type": "uint256"
        },
        {
          "internalType": "bool",
          "name": "isPaid",
          "type": "bool"
        }
      ],
      "stateMutability": "view",
      "type": "function"
    },
    {
      "inputs": [
        {
          "internalType": "uint256",
          "name": "",
          "type": "uint256"
        }
      ],
      "name": "rooms",
      "outputs": [
        {
          "internalType": "string",
          "name": "title",
          "type": "string"
        },
        {
          "internalType": "string",
          "name": "physicalAddress",
          "type": "string"
        },
        {
          "internalType": "uint256",
          "name": "id",
          "type": "uint256"
        },
        {
          "internalType": "string",
          "name": "image",
          "type": "string"
        },
        {
          "internalType": "uint256",
          "name": "price",
          "type": "uint256"
        },
        {
          "internalType": "address",
          "name": "owner",
          "type": "address"
        },
        {
          "internalType": "bool",
          "name": "canReserve",
          "type": "bool"
        }
      ],
      "stateMutability": "view",
      "type": "function"
    },
    {
      "inputs": [
        {
          "internalType": "address",
          "name": "newOwner",
          "type": "address"
        }
      ],
      "name": "transferOwnership",
      "outputs": [],
      "stateMutability": "nonpayable",
      "type": "function"
    },
    {
      "inputs": [
        {
          "internalType": "uint256",
          "name": "roomId",
          "type": "uint256"
        },
        {
          "internalType": "bool",
          "name": "status",
          "type": "bool"
        }
      ],
      "name": "updateRoomReservationStatus",
      "outputs": [],
      "stateMutability": "nonpayable",
      "type": "function"
    },
    {
      "stateMutability": "payable",
      "type": "receive"
    }
  ],
  "bytecode": "608060405234801561001057600080fd5b5061001a336102f8565b6040805161012081018252600960e0820190815268526f6f6d205a65726f60b81b610100830152815281516020818101845260008083528184019290925282840182905283519081019093528083526060820192909252608081018290523060a082015260c08101829052600380546001810182559252805190916006027fc2575a0e9e593c00f959f8c92f12db2869c3395a3b0502d05e2516446f71f85b019081906100c790826103e9565b50602082015160018201906100dc90826103e9565b5060408201516002820155606082015160038201906100fb90826103e9565b506080820151816004015560a08201518160050160006101000a8154816001600160a01b0302191690836001600160a01b0316021790555060c08201518160050160146101000a81548160ff021916908315150217905550505060026040518060a00160405280306001600160a01b0316815260200160008152602001600081526020016000815260200160011515815250908060018154018082558091505060019003906000526020600020906005020160009091909190915060008201518160000160006101000a8154816001600160a01b0302191690836001600160a01b0316021790555060208201518160010155604082015181600201556060820151816003015560808201518160040160006101000a81548160ff021916908315150217905550505060046040518060800160405280306001600160a01b03168152602001306001600160a01b03168152602001600081526020016000815250908060018154018082558091505060019003906000526020600020906004020160009091909190915060008201518160000160006101000a8154816001600160a01b0302191690836001600160a01b0316021790555060208201518160010160006101000a8154816001600160a01b0302191690836001600160a01b03160217905550604082015181600201556060820151816003015550506104a8565b600080546001600160a01b038381166001600160a01b0319831681178455604051919092169283917f8be0079c531659141344cd1fd0a4f28419497f9722a3daafe3b4186f6b6457e09190a35050565b634e487b7160e01b600052604160045260246000fd5b600181811c9082168061037257607f821691505b60208210810361039257634e487b7160e01b600052602260045260246000fd5b50919050565b601f8211156103e4576000816000526020600020601f850160051c810160208610156103c15750805b601f850160051c820191505b818110156103e0578281556001016103cd565b5050505b505050565b81516001600160401b0381111561040257610402610348565b61041681610410845461035e565b84610398565b602080601f83116001811461044b57600084156104335750858301515b600019600386901b1c1916600185901b1785556103e0565b600085815260208120601f198616915b8281101561047a5788860151825594840194600190910190840161045b565b50858210156104985787850151600019600388901b60f8161c191681555b5050505050600190811b01905550565b611815806104b76000396000f3fe6080604052600436106100d55760003560e01c8063ad8a51e711610079578063cd126f9511610056578063cd126f9514610279578063d94f485f1461028e578063f039529d146102ae578063f2fde38b146102ce57005b8063ad8a51e714610225578063b8d2d08a14610244578063b8e0ffbe1461026457005b8063715018a6116100b2578063715018a61461017d57806387d81789146101925780638da5cb5b146101dd578063a500ff671461020557005b8063067cf832146100de5780631bae0ac8146101375780635114cb521461016a57005b366100dc57005b005b3480156100ea57600080fd5b506100fe6100f936600461128e565b6102ee565b604080516001600160a01b03909616865260208601949094529284019190915260608301521515608082015260a0015b60405180910390f35b34801561014357600080fd5b5061015761015236600461128e565b61033c565b60405161012e97969594939291906112ed565b6100dc61017836600461128e565b610535565b34801561018957600080fd5b506100dc610831565b34801561019e57600080fd5b506101b26101ad36600461128e565b610897565b604080516001600160a01b03958616815294909316602085015291830152606082015260800161012e565b3480156101e957600080fd5b506000546040516001600160a01b03909116815260200161012e565b34801561021157600080fd5b506100dc610220366004611357565b6108dd565b34801561023157600080fd5b506003545b60405190815260200161012e565b34801561025057600080fd5b506100dc61025f36600461138e565b610af5565b34801561027057600080fd5b50600454610236565b34801561028557600080fd5b50600254610236565b34801561029a57600080fd5b506100dc6102a93660046113cd565b610e86565b3480156102ba57600080fd5b506100dc6102c936600461149c565b611015565b3480156102da57600080fd5b506100dc6102e936600461153f565b611139565b600281815481106102fe57600080fd5b6000918252602090912060059091020180546001820154600283015460038401546004909401546001600160a01b0390931694509092909160ff1685565b6003818154811061034c57600080fd5b906000526020600020906006020160009150905080600001805461036f9061156f565b80601f016020809104026020016040519081016040528092919081815260200182805461039b9061156f565b80156103e85780601f106103bd576101008083540402835291602001916103e8565b820191906000526020600020905b8154815290600101906020018083116103cb57829003601f168201915b5050505050908060010180546103fd9061156f565b80601f01602080910402602001604051908101604052809291908181526020018280546104299061156f565b80156104765780601f1061044b57610100808354040283529160200191610476565b820191906000526020600020905b81548152906001019060200180831161045957829003601f168201915b5050505050908060020154908060030180546104919061156f565b80601f01602080910402602001604051908101604052809291908181526020018280546104bd9061156f565b801561050a5780601f106104df5761010080835404028352916020019161050a565b820191906000526020600020905b8154815290600101906020018083116104ed57829003601f168201915b5050505060048301546005909301549192916001600160a01b0381169150600160a01b900460ff1687565b8060025481106105605760405162461bcd60e51b8152600401610557906115a9565b60405180910390fd5b34600360028481548110610576576105766115f7565b90600052602060002090600502016001015481548110610598576105986115f7565b9060005260206000209060060201600401541461061d5760405162461bcd60e51b815260206004820152603a60248201527f526f6f6d5265736572766174696f6e733a206d73672e76616c756520646f657360448201527f206e6f74206d617463682074686520726f6f6d2070726963652e0000000000006064820152608401610557565b600060028381548110610632576106326115f7565b6000918252602082206005909102019150606461065034605f611623565b61065a9190611640565b905060006106688234611662565b905060006003846001015481548110610683576106836115f7565b600091825260208220600560069092020101546040516001600160a01b039091169250829185156108fc02918691818181858888f193505050501580156106ce573d6000803e3d6000fd5b50600080546040516001600160a01b039091169184156108fc02918591818181858888f19350505050158015610708573d6000803e3d6000fd5b506000604051806080016040528061071d3390565b6001600160a01b0390811682529384166020808301919091524260408084019190915260609283019a909a526004805460018181018355600083905285519183027f8a35acfbc15ff81a39ae7d344fd709f28e8600b4aa8c65c6b64bfe7fe36bd19b81018054938a166001600160a01b0319948516179055938601517f8a35acfbc15ff81a39ae7d344fd709f28e8600b4aa8c65c6b64bfe7fe36bd19c8501805491909916921691909117909655998301517f8a35acfbc15ff81a39ae7d344fd709f28e8600b4aa8c65c6b64bfe7fe36bd19d8201559101517f8a35acfbc15ff81a39ae7d344fd709f28e8600b4aa8c65c6b64bfe7fe36bd19e909101555092909401805460ff1916909217909155505050565b6000546001600160a01b0316331461088b5760405162461bcd60e51b815260206004820181905260248201527f4f776e61626c653a2063616c6c6572206973206e6f7420746865206f776e65726044820152606401610557565b6108956000611204565b565b600481815481106108a757600080fd5b600091825260209091206004909102018054600182015460028301546003909301546001600160a01b0392831694509116919084565b8160035481106108ff5760405162461bcd60e51b815260040161055790611675565b8160025481106109215760405162461bcd60e51b8152600401610557906115a9565b60038481548110610934576109346115f7565b60009182526020909120600690910201600501546001600160a01b0316336001600160a01b0316148061099b575060028381548110610975576109756115f7565b60009182526020909120600590910201546001600160a01b0316336001600160a01b0316145b610a335760405162461bcd60e51b815260206004820152605d60248201527f526f6f6d5265736572766174696f6e733a206f6e6c792074686520726f6f6d7360448201527f206f776e6572206f7220746865207265736572766174696f6e73206f776e657260648201527f2063616e2064656c6574652074686973207265736572766174696f6e2e000000608482015260a401610557565b6000848152600160205260408120905b8154811015610aed5784828281548110610a5f57610a5f6115f7565b906000526020600020015403610ae55781548290610a7f90600190611662565b81548110610a8f57610a8f6115f7565b9060005260206000200154828281548110610aac57610aac6115f7565b906000526020600020018190555081805480610aca57610aca6116bc565b60019003818190600052602060002001600090559055610aed565b600101610a43565b505050505050565b836003548110610b175760405162461bcd60e51b815260040161055790611675565b60038581548110610b2a57610b2a6115f7565b906000526020600020906006020160050160149054906101000a900460ff16610bab5760405162461bcd60e51b815260206004820152602d60248201527f526f6f6d5265736572766174696f6e733a205468697320726f6f6d206973206e60448201526c37ba1030bb30b4b630b136329760991b6064820152608401610557565b8115610d0e57610bb9611254565b60005b600087815260016020526040902054811015610d0257600087815260016020526040902080546002919083908110610bf657610bf66115f7565b906000526020600020015481548110610c1157610c116115f7565b60009182526020918290206040805160a081018252600590930290910180546001600160a01b0316835260018101549383019390935260028301549082015260038201546060820181905260049092015460ff16151560808201529250861180610c7e5750816040015185105b610cfa5760405162461bcd60e51b815260206004820152604160248201527f526f6f6d5265736572766174696f6e733a205468697320726f6f6d206973206160448201527f6c726561647920726573657276656420647572696e67207468697320646174656064820152601760f91b608482015260a401610557565b600101610bbc565b50610d0b611254565b50505b60006040518060a00160405280610d223390565b6001600160a01b03908116825260208083018a905260408084018a905260608085018a905260006080958601819052600280546001808201835582845289517f405787fa12a823e0f2b7631cc41b3ba8828b3321ca811111fa75cd3aa3bb5ace600590930292830180546001600160a01b0319169190991617909755888601517f405787fa12a823e0f2b7631cc41b3ba8828b3321ca811111fa75cd3aa3bb5acf820155888501517f405787fa12a823e0f2b7631cc41b3ba8828b3321ca811111fa75cd3aa3bb5ad0820155928801517f405787fa12a823e0f2b7631cc41b3ba8828b3321ca811111fa75cd3aa3bb5ad1840155958701517f405787fa12a823e0f2b7631cc41b3ba8828b3321ca811111fa75cd3aa3bb5ad2909201805460ff1916921515929092179091558b815291839052902091549293509091610e689190611662565b81546001810183556000928352602090922090910155505050505050565b816003548110610ea85760405162461bcd60e51b815260040161055790611675565b600060038481548110610ebd57610ebd6115f7565b6000918252602090912060069091020160058101549091506001600160a01b0316336001600160a01b031614610f695760405162461bcd60e51b815260206004820152604560248201527f526f6f6d5265736572766174696f6e733a206f6e6c792074686520726f6f6d7360448201527f206f776e65722063616e20757064617465207265736572766174696f6e20737460648201526430ba3ab99760d91b608482015260a401610557565b8215158160050160149054906101000a900460ff16151503610ff35760405162461bcd60e51b815260206004820152603a60248201527f526f6f6d5265736572766174696f6e733a2043616e206e6f742073657420636160448201527f6e52657365727665203d20746f2073616d65207374617475732e0000000000006064820152608401610557565b6005018054921515600160a01b0260ff60a01b19909316929092179091555050565b60006040518060e0016040528087815260200186815260200160016003805490506110409190611662565b81526020018581526020018481526020016110583390565b6001600160a01b03168152831515602090910152600380546001810182556000919091528151919250829160069091027fc2575a0e9e593c00f959f8c92f12db2869c3395a3b0502d05e2516446f71f85b019081906110b7908261171f565b50602082015160018201906110cc908261171f565b5060408201516002820155606082015160038201906110eb908261171f565b506080820151600482015560a08201516005909101805460c0909301511515600160a01b026001600160a81b03199093166001600160a01b0390921691909117919091179055505050505050565b6000546001600160a01b031633146111935760405162461bcd60e51b815260206004820181905260248201527f4f776e61626c653a2063616c6c6572206973206e6f7420746865206f776e65726044820152606401610557565b6001600160a01b0381166111f85760405162461bcd60e51b815260206004820152602660248201527f4f776e61626c653a206e6577206f776e657220697320746865207a65726f206160448201526564647265737360d01b6064820152608401610557565b61120181611204565b50565b600080546001600160a01b038381166001600160a01b0319831681178455604051919092169283917f8be0079c531659141344cd1fd0a4f28419497f9722a3daafe3b4186f6b6457e09190a35050565b6040518060a0016040528060006001600160a01b031681526020016000815260200160008152602001600081526020016000151581525090565b6000602082840312156112a057600080fd5b5035919050565b6000815180845260005b818110156112cd576020818501810151868301820152016112b1565b506000602082860101526020601f19601f83011685010191505092915050565b60e08152600061130060e083018a6112a7565b8281036020840152611312818a6112a7565b9050876040840152828103606084015261132c81886112a7565b608084019690965250506001600160a01b039290921660a0830152151560c090910152949350505050565b6000806040838503121561136a57600080fd5b50508035926020909101359150565b8035801515811461138957600080fd5b919050565b600080600080608085870312156113a457600080fd5b8435935060208501359250604085013591506113c260608601611379565b905092959194509250565b600080604083850312156113e057600080fd5b823591506113f060208401611379565b90509250929050565b634e487b7160e01b600052604160045260246000fd5b600082601f83011261142057600080fd5b813567ffffffffffffffff8082111561143b5761143b6113f9565b604051601f8301601f19908116603f01168101908282118183101715611463576114636113f9565b8160405283815286602085880101111561147c57600080fd5b836020870160208301376000602085830101528094505050505092915050565b600080600080600060a086880312156114b457600080fd5b853567ffffffffffffffff808211156114cc57600080fd5b6114d889838a0161140f565b965060208801359150808211156114ee57600080fd5b6114fa89838a0161140f565b9550604088013591508082111561151057600080fd5b5061151d8882890161140f565b9350506060860135915061153360808701611379565b90509295509295909350565b60006020828403121561155157600080fd5b81356001600160a01b038116811461156857600080fd5b9392505050565b600181811c9082168061158357607f821691505b6020821081036115a357634e487b7160e01b600052602260045260246000fd5b50919050565b6020808252602e908201527f526f6f6d5265736572766174696f6e733a207265736572766174696f6e49642060408201526d37baba1037b3103137bab732399760911b606082015260800190565b634e487b7160e01b600052603260045260246000fd5b634e487b7160e01b600052601160045260246000fd5b808202811582820484141761163a5761163a61160d565b92915050565b60008261165d57634e487b7160e01b600052601260045260246000fd5b500490565b8181038181111561163a5761163a61160d565b60208082526027908201527f526f6f6d5265736572766174696f6e733a20726f6f6d4964206f7574206f66206040820152663137bab732399760c91b606082015260800190565b634e487b7160e01b600052603160045260246000fd5b601f82111561171a576000816000526020600020601f850160051c810160208610156116fb5750805b601f850160051c820191505b81811015610aed57828155600101611707565b505050565b815167ffffffffffffffff811115611739576117396113f9565b61174d81611747845461156f565b846116d2565b602080601f831160018114611782576000841561176a5750858301515b600019600386901b1c1916600185901b178555610aed565b600085815260208120601f198616915b828110156117b157888601518255948401946001909101908401611792565b50858210156117cf5787850151600019600388901b60f8161c191681555b5050505050600190811b0190555056fea26469706673582212206b8f6ff742173072421e33ff4899ca545e01199d27a5bdc126bbb323497eda3564736f6c63430008190033",
  "bytecodeSha1": "2215f0a0ae5e047a279d12e2e21cd87fd42f4d70",
  "compiler": {
    "evm_version": "istanbul",
    "optimizer": {
      "enabled": true,
      "runs": 200
    },
    "version": "0.8.25+commit.b61c2a91"
  },
  "contractName": "RoomReservations",
  "language": "Solidity",
  "natspec": {
    "author": "Jordan Castro",
    "kind": "dev",
    "methods": {
      "addRoom(string,string,string,uint256,bool)": {
        "details": "add a new room from data to list and set map id.  The amount of wei is determined by the compiler",
        "notice": "This is to add a new room."
      },
      "deleteReservation(uint256,uint256)": {
        "details": "Remove reservation from room.",
        "notice": "Delete a reservation. Is based off the rooms ID."
      },
      "makePayment(uint256)": {
        "details": "Adds new payment to list. And sets wei or ether on contract.",
        "notice": "This handles payments. Lodges a new payment into our smart contract data. In order to receive payment you must use the withdraw() function."
      },
      "makeReservation(uint256,uint256,uint256,bool)": {
        "details": "Add new reservation to list.  The amount of wei is determined by the compiler.  Checks that room id exists.",
        "notice": "This is to make a new reservation. The room is reserved by whoever made the call."
      },
      "owner()": {
        "details": "Returns the address of the current owner."
      },
      "renounceOwnership()": {
        "details": "Leaves the contract without owner. It will not be possible to call `onlyOwner` functions anymore. Can only be called by the current owner. NOTE: Renouncing ownership will leave the contract without an owner, thereby removing any functionality that is only available to the owner."
      },
      "transferOwnership(address)": {
        "details": "Transfers ownership of the contract to a new account (`newOwner`). Can only be called by the current owner."
      },
      "updateRoomReservationStatus(uint256,bool)": {
        "details": "Set canReserve = status on room",
        "notice": "Update the room reservation status."
      }
    },
    "notice": "Smart Contract for creating, reserving, and paying for rooms on the Polygon Blockchain.",
    "title": "RoomReservations",
    "version": 1
  },
  "opcodes": "PUSH1 0x80 PUSH1 0x40 MSTORE PUSH1 0x4 CALLDATASIZE LT PUSH2 0xD5 JUMPI PUSH1 0x0 CALLDATALOAD PUSH1 0xE0 SHR DUP1 PUSH4 0xAD8A51E7 GT PUSH2 0x79 JUMPI DUP1 PUSH4 0xCD126F95 GT PUSH2 0x56 JUMPI DUP1 PUSH4 0xCD126F95 EQ PUSH2 0x279 JUMPI DUP1 PUSH4 0xD94F485F EQ PUSH2 0x28E JUMPI DUP1 PUSH4 0xF039529D EQ PUSH2 0x2AE JUMPI DUP1 PUSH4 0xF2FDE38B EQ PUSH2 0x2CE JUMPI STOP JUMPDEST DUP1 PUSH4 0xAD8A51E7 EQ PUSH2 0x225 JUMPI DUP1 PUSH4 0xB8D2D08A EQ PUSH2 0x244 JUMPI DUP1 PUSH4 0xB8E0FFBE EQ PUSH2 0x264 JUMPI STOP JUMPDEST DUP1 PUSH4 0x715018A6 GT PUSH2 0xB2 JUMPI DUP1 PUSH4 0x715018A6 EQ PUSH2 0x17D JUMPI DUP1 PUSH4 0x87D81789 EQ PUSH2 0x192 JUMPI DUP1 PUSH4 0x8DA5CB5B EQ PUSH2 0x1DD JUMPI DUP1 PUSH4 0xA500FF67 EQ PUSH2 0x205 JUMPI STOP JUMPDEST DUP1 PUSH4 0x67CF832 EQ PUSH2 0xDE JUMPI DUP1 PUSH4 0x1BAE0AC8 EQ PUSH2 0x137 JUMPI DUP1 PUSH4 0x5114CB52 EQ PUSH2 0x16A JUMPI STOP JUMPDEST CALLDATASIZE PUSH2 0xDC JUMPI STOP JUMPDEST STOP JUMPDEST CALLVALUE DUP1 ISZERO PUSH2 0xEA JUMPI PUSH1 0x0 DUP1 REVERT JUMPDEST POP PUSH2 0xFE PUSH2 0xF9 CALLDATASIZE PUSH1 0x4 PUSH2 0x128E JUMP JUMPDEST PUSH2 0x2EE JUMP JUMPDEST PUSH1 0x40 DUP1 MLOAD PUSH1 0x1 PUSH1 0x1 PUSH1 0xA0 SHL SUB SWAP1 SWAP7 AND DUP7 MSTORE PUSH1 0x20 DUP7 ADD SWAP5 SWAP1 SWAP5 MSTORE SWAP3 DUP5 ADD SWAP2 SWAP1 SWAP2 MSTORE PUSH1 0x60 DUP4 ADD MSTORE ISZERO ISZERO PUSH1 0x80 DUP3 ADD MSTORE PUSH1 0xA0 ADD JUMPDEST PUSH1 0x40 MLOAD DUP1 SWAP2 SUB SWAP1 RETURN JUMPDEST CALLVALUE DUP1 ISZERO PUSH2 0x143 JUMPI PUSH1 0x0 DUP1 REVERT JUMPDEST POP PUSH2 0x157 PUSH2 0x152 CALLDATASIZE PUSH1 0x4 PUSH2 0x128E JUMP JUMPDEST PUSH2 0x33C JUMP JUMPDEST PUSH1 0x40 MLOAD PUSH2 0x12E SWAP8 SWAP7 SWAP6 SWAP5 SWAP4 SWAP3 SWAP2 SWAP1 PUSH2 0x12ED JUMP JUMPDEST PUSH2 0xDC PUSH2 0x178 CALLDATASIZE PUSH1 0x4 PUSH2 0x128E JUMP JUMPDEST PUSH2 0x535 JUMP JUMPDEST CALLVALUE DUP1 ISZERO PUSH2 0x189 JUMPI PUSH1 0x0 DUP1 REVERT JUMPDEST POP PUSH2 0xDC PUSH2 0x831 JUMP JUMPDEST CALLVALUE DUP1 ISZERO PUSH2 0x19E JUMPI PUSH1 0x0 DUP1 REVERT JUMPDEST POP PUSH2 0x1B2 PUSH2 0x1AD CALLDATASIZE PUSH1 0x4 PUSH2 0x128E JUMP JUMPDEST PUSH2 0x897 JUMP JUMPDEST PUSH1 0x40 DUP1 MLOAD PUSH1 0x1 PUSH1 0x1 PUSH1 0xA0 SHL SUB SWAP6 DUP7 AND DUP2 MSTORE SWAP5 SWAP1 SWAP4 AND PUSH1 0x20 DUP6 ADD MSTORE SWAP2 DUP4 ADD MSTORE PUSH1 0x60 DUP3 ADD MSTORE PUSH1 0x80 ADD PUSH2 0x12E JUMP JUMPDEST CALLVALUE DUP1 ISZERO PUSH2 0x1E9 JUMPI PUSH1 0x0 DUP1 REVERT JUMPDEST POP PUSH1 0x0 SLOAD PUSH1 0x40 MLOAD PUSH1 0x1 PUSH1 0x1 PUSH1 0xA0 SHL SUB SWAP1 SWAP2 AND DUP2 MSTORE PUSH1 0x20 ADD PUSH2 0x12E JUMP JUMPDEST CALLVALUE DUP1 ISZERO PUSH2 0x211 JUMPI PUSH1 0x0 DUP1 REVERT JUMPDEST POP PUSH2 0xDC PUSH2 0x220 CALLDATASIZE PUSH1 0x4 PUSH2 0x1357 JUMP JUMPDEST PUSH2 0x8DD JUMP JUMPDEST CALLVALUE DUP1 ISZERO PUSH2 0x231 JUMPI PUSH1 0x0 DUP1 REVERT JUMPDEST POP PUSH1 0x3 SLOAD JUMPDEST PUSH1 0x40 MLOAD SWAP1 DUP2 MSTORE PUSH1 0x20 ADD PUSH2 0x12E JUMP JUMPDEST CALLVALUE DUP1 ISZERO PUSH2 0x250 JUMPI PUSH1 0x0 DUP1 REVERT JUMPDEST POP PUSH2 0xDC PUSH2 0x25F CALLDATASIZE PUSH1 0x4 PUSH2 0x138E JUMP JUMPDEST PUSH2 0xAF5 JUMP JUMPDEST CALLVALUE DUP1 ISZERO PUSH2 0x270 JUMPI PUSH1 0x0 DUP1 REVERT JUMPDEST POP PUSH1 0x4 SLOAD PUSH2 0x236 JUMP JUMPDEST CALLVALUE DUP1 ISZERO PUSH2 0x285 JUMPI PUSH1 0x0 DUP1 REVERT JUMPDEST POP PUSH1 0x2 SLOAD PUSH2 0x236 JUMP JUMPDEST CALLVALUE DUP1 ISZERO PUSH2 0x29A JUMPI PUSH1 0x0 DUP1 REVERT JUMPDEST POP PUSH2 0xDC PUSH2 0x2A9 CALLDATASIZE PUSH1 0x4 PUSH2 0x13CD JUMP JUMPDEST PUSH2 0xE86 JUMP JUMPDEST CALLVALUE DUP1 ISZERO PUSH2 0x2BA JUMPI PUSH1 0x0 DUP1 REVERT JUMPDEST POP PUSH2 0xDC PUSH2 0x2C9 CALLDATASIZE PUSH1 0x4 PUSH2 0x149C JUMP JUMPDEST PUSH2 0x1015 JUMP JUMPDEST CALLVALUE DUP1 ISZERO PUSH2 0x2DA JUMPI PUSH1 0x0 DUP1 REVERT JUMPDEST POP PUSH2 0xDC PUSH2 0x2E9 CALLDATASIZE PUSH1 0x4 PUSH2 0x153F JUMP JUMPDEST PUSH2 0x1139 JUMP JUMPDEST PUSH1 0x2 DUP2 DUP2 SLOAD DUP2 LT PUSH2 0x2FE JUMPI PUSH1 0x0 DUP1 REVERT JUMPDEST PUSH1 0x0 SWAP2 DUP3 MSTORE PUSH1 0x20 SWAP1 SWAP2 KECCAK256 PUSH1 0x5 SWAP1 SWAP2 MUL ADD DUP1 SLOAD PUSH1 0x1 DUP3 ADD SLOAD PUSH1 0x2 DUP4 ADD SLOAD PUSH1 0x3 DUP5 ADD SLOAD PUSH1 0x4 SWAP1 SWAP5 ADD SLOAD PUSH1 0x1 PUSH1 0x1 PUSH1 0xA0 SHL SUB SWAP1 SWAP4 AND SWAP5 POP SWAP1 SWAP3 SWAP1 SWAP2 PUSH1 0xFF AND DUP6 JUMP JUMPDEST PUSH1 0x3 DUP2 DUP2 SLOAD DUP2 LT PUSH2 0x34C JUMPI PUSH1 0x0 DUP1 REVERT JUMPDEST SWAP1 PUSH1 0x0 MSTORE PUSH1 0x20 PUSH1 0x0 KECCAK256 SWAP1 PUSH1 0x6 MUL ADD PUSH1 0x0 SWAP2 POP SWAP1 POP DUP1 PUSH1 0x0 ADD DUP1 SLOAD PUSH2 0x36F SWAP1 PUSH2 0x156F JUMP JUMPDEST DUP1 PUSH1 0x1F ADD PUSH1 0x20 DUP1 SWAP2 DIV MUL PUSH1 0x20 ADD PUSH1 0x40 MLOAD SWAP1 DUP2 ADD PUSH1 0x40 MSTORE DUP1 SWAP3 SWAP2 SWAP1 DUP2 DUP2 MSTORE PUSH1 0x20 ADD DUP3 DUP1 SLOAD PUSH2 0x39B SWAP1 PUSH2 0x156F JUMP JUMPDEST DUP1 ISZERO PUSH2 0x3E8 JUMPI DUP1 PUSH1 0x1F LT PUSH2 0x3BD JUMPI PUSH2 0x100 DUP1 DUP4 SLOAD DIV MUL DUP4 MSTORE SWAP2 PUSH1 0x20 ADD SWAP2 PUSH2 0x3E8 JUMP JUMPDEST DUP3 ADD SWAP2 SWAP1 PUSH1 0x0 MSTORE PUSH1 0x20 PUSH1 0x0 KECCAK256 SWAP1 JUMPDEST DUP2 SLOAD DUP2 MSTORE SWAP1 PUSH1 0x1 ADD SWAP1 PUSH1 0x20 ADD DUP1 DUP4 GT PUSH2 0x3CB JUMPI DUP3 SWAP1 SUB PUSH1 0x1F AND DUP3 ADD SWAP2 JUMPDEST POP POP POP POP POP SWAP1 DUP1 PUSH1 0x1 ADD DUP1 SLOAD PUSH2 0x3FD SWAP1 PUSH2 0x156F JUMP JUMPDEST DUP1 PUSH1 0x1F ADD PUSH1 0x20 DUP1 SWAP2 DIV MUL PUSH1 0x20 ADD PUSH1 0x40 MLOAD SWAP1 DUP2 ADD PUSH1 0x40 MSTORE DUP1 SWAP3 SWAP2 SWAP1 DUP2 DUP2 MSTORE PUSH1 0x20 ADD DUP3 DUP1 SLOAD PUSH2 0x429 SWAP1 PUSH2 0x156F JUMP JUMPDEST DUP1 ISZERO PUSH2 0x476 JUMPI DUP1 PUSH1 0x1F LT PUSH2 0x44B JUMPI PUSH2 0x100 DUP1 DUP4 SLOAD DIV MUL DUP4 MSTORE SWAP2 PUSH1 0x20 ADD SWAP2 PUSH2 0x476 JUMP JUMPDEST DUP3 ADD SWAP2 SWAP1 PUSH1 0x0 MSTORE PUSH1 0x20 PUSH1 0x0 KECCAK256 SWAP1 JUMPDEST DUP2 SLOAD DUP2 MSTORE SWAP1 PUSH1 0x1 ADD SWAP1 PUSH1 0x20 ADD DUP1 DUP4 GT PUSH2 0x459 JUMPI DUP3 SWAP1 SUB PUSH1 0x1F AND DUP3 ADD SWAP2 JUMPDEST POP POP POP POP POP SWAP1 DUP1 PUSH1 0x2 ADD SLOAD SWAP1 DUP1 PUSH1 0x3 ADD DUP1 SLOAD PUSH2 0x491 SWAP1 PUSH2 0x156F JUMP JUMPDEST DUP1 PUSH1 0x1F ADD PUSH1 0x20 DUP1 SWAP2 DIV MUL PUSH1 0x20 ADD PUSH1 0x40 MLOAD SWAP1 DUP2 ADD PUSH1 0x40 MSTORE DUP1 SWAP3 SWAP2 SWAP1 DUP2 DUP2 MSTORE PUSH1 0x20 ADD DUP3 DUP1 SLOAD PUSH2 0x4BD SWAP1 PUSH2 0x156F JUMP JUMPDEST DUP1 ISZERO PUSH2 0x50A JUMPI DUP1 PUSH1 0x1F LT PUSH2 0x4DF JUMPI PUSH2 0x100 DUP1 DUP4 SLOAD DIV MUL DUP4 MSTORE SWAP2 PUSH1 0x20 ADD SWAP2 PUSH2 0x50A JUMP JUMPDEST DUP3 ADD SWAP2 SWAP1 PUSH1 0x0 MSTORE PUSH1 0x20 PUSH1 0x0 KECCAK256 SWAP1 JUMPDEST DUP2 SLOAD DUP2 MSTORE SWAP1 PUSH1 0x1 ADD SWAP1 PUSH1 0x20 ADD DUP1 DUP4 GT PUSH2 0x4ED JUMPI DUP3 SWAP1 SUB PUSH1 0x1F AND DUP3 ADD SWAP2 JUMPDEST POP POP POP POP PUSH1 0x4 DUP4 ADD SLOAD PUSH1 0x5 SWAP1 SWAP4 ADD SLOAD SWAP2 SWAP3 SWAP2 PUSH1 0x1 PUSH1 0x1 PUSH1 0xA0 SHL SUB DUP2 AND SWAP2 POP PUSH1 0x1 PUSH1 0xA0 SHL SWAP1 DIV PUSH1 0xFF AND DUP8 JUMP JUMPDEST DUP1 PUSH1 0x2 SLOAD DUP2 LT PUSH2 0x560 JUMPI PUSH1 0x40 MLOAD PUSH3 0x461BCD PUSH1 0xE5 SHL DUP2 MSTORE PUSH1 0x4 ADD PUSH2 0x557 SWAP1 PUSH2 0x15A9 JUMP JUMPDEST PUSH1 0x40 MLOAD DUP1 SWAP2 SUB SWAP1 REVERT JUMPDEST CALLVALUE PUSH1 0x3 PUSH1 0x2 DUP5 DUP2 SLOAD DUP2 LT PUSH2 0x576 JUMPI PUSH2 0x576 PUSH2 0x15F7 JUMP JUMPDEST SWAP1 PUSH1 0x0 MSTORE PUSH1 0x20 PUSH1 0x0 KECCAK256 SWAP1 PUSH1 0x5 MUL ADD PUSH1 0x1 ADD SLOAD DUP2 SLOAD DUP2 LT PUSH2 0x598 JUMPI PUSH2 0x598 PUSH2 0x15F7 JUMP JUMPDEST SWAP1 PUSH1 0x0 MSTORE PUSH1 0x20 PUSH1 0x0 KECCAK256 SWAP1 PUSH1 0x6 MUL ADD PUSH1 0x4 ADD SLOAD EQ PUSH2 0x61D JUMPI PUSH1 0x40 MLOAD PUSH3 0x461BCD PUSH1 0xE5 SHL DUP2 MSTORE PUSH1 0x20 PUSH1 0x4 DUP3 ADD MSTORE PUSH1 0x3A PUSH1 0x24 DUP3 ADD MSTORE PUSH32 0x526F6F6D5265736572766174696F6E733A206D73672E76616C756520646F6573 PUSH1 0x44 DUP3 ADD MSTORE PUSH32 0x206E6F74206D617463682074686520726F6F6D2070726963652E000000000000 PUSH1 0x64 DUP3 ADD MSTORE PUSH1 0x84 ADD PUSH2 0x557 JUMP JUMPDEST PUSH1 0x0 PUSH1 0x2 DUP4 DUP2 SLOAD DUP2 LT PUSH2 0x632 JUMPI PUSH2 0x632 PUSH2 0x15F7 JUMP JUMPDEST PUSH1 0x0 SWAP2 DUP3 MSTORE PUSH1 0x20 DUP3 KECCAK256 PUSH1 0x5 SWAP1 SWAP2 MUL ADD SWAP2 POP PUSH1 0x64 PUSH2 0x650 CALLVALUE PUSH1 0x5F PUSH2 0x1623 JUMP JUMPDEST PUSH2 0x65A SWAP2 SWAP1 PUSH2 0x1640 JUMP JUMPDEST SWAP1 POP PUSH1 0x0 PUSH2 0x668 DUP3 CALLVALUE PUSH2 0x1662 JUMP JUMPDEST SWAP1 POP PUSH1 0x0 PUSH1 0x3 DUP5 PUSH1 0x1 ADD SLOAD DUP2 SLOAD DUP2 LT PUSH2 0x683 JUMPI PUSH2 0x683 PUSH2 0x15F7 JUMP JUMPDEST PUSH1 0x0 SWAP2 DUP3 MSTORE PUSH1 0x20 DUP3 KECCAK256 PUSH1 0x5 PUSH1 0x6 SWAP1 SWAP3 MUL ADD ADD SLOAD PUSH1 0x40 MLOAD PUSH1 0x1 PUSH1 0x1 PUSH1 0xA0 SHL SUB SWAP1 SWAP2 AND SWAP3 POP DUP3 SWAP2 DUP6 ISZERO PUSH2 0x8FC MUL SWAP2 DUP7 SWAP2 DUP2 DUP2 DUP2 DUP6 DUP9 DUP9 CALL SWAP4 POP POP POP POP ISZERO DUP1 ISZERO PUSH2 0x6CE JUMPI RETURNDATASIZE PUSH1 0x0 DUP1 RETURNDATACOPY RETURNDATASIZE PUSH1 0x0 REVERT JUMPDEST POP PUSH1 0x0 DUP1 SLOAD PUSH1 0x40 MLOAD PUSH1 0x1 PUSH1 0x1 PUSH1 0xA0 SHL SUB SWAP1 SWAP2 AND SWAP2 DUP5 ISZERO PUSH2 0x8FC MUL SWAP2 DUP6 SWAP2 DUP2 DUP2 DUP2 DUP6 DUP9 DUP9 CALL SWAP4 POP POP POP POP ISZERO DUP1 ISZERO PUSH2 0x708 JUMPI RETURNDATASIZE PUSH1 0x0 DUP1 RETURNDATACOPY RETURNDATASIZE PUSH1 0x0 REVERT JUMPDEST POP PUSH1 0x0 PUSH1 0x40 MLOAD DUP1 PUSH1 0x80 ADD PUSH1 0x40 MSTORE DUP1 PUSH2 0x71D CALLER SWAP1 JUMP JUMPDEST PUSH1 0x1 PUSH1 0x1 PUSH1 0xA0 SHL SUB SWAP1 DUP2 AND DUP3 MSTORE SWAP4 DUP5 AND PUSH1 0x20 DUP1 DUP4 ADD SWAP2 SWAP1 SWAP2 MSTORE TIMESTAMP PUSH1 0x40 DUP1 DUP5 ADD SWAP2 SWAP1 SWAP2 MSTORE PUSH1 0x60 SWAP3 DUP4 ADD SWAP11 SWAP1 SWAP11 MSTORE PUSH1 0x4 DUP1 SLOAD PUSH1 0x1 DUP2 DUP2 ADD DUP4 SSTORE PUSH1 0x0 DUP4 SWAP1 MSTORE DUP6 MLOAD SWAP2 DUP4 MUL PUSH32 0x8A35ACFBC15FF81A39AE7D344FD709F28E8600B4AA8C65C6B64BFE7FE36BD19B DUP2 ADD DUP1 SLOAD SWAP4 DUP11 AND PUSH1 0x1 PUSH1 0x1 PUSH1 0xA0 SHL SUB NOT SWAP5 DUP6 AND OR SWAP1 SSTORE SWAP4 DUP7 ADD MLOAD PUSH32 0x8A35ACFBC15FF81A39AE7D344FD709F28E8600B4AA8C65C6B64BFE7FE36BD19C DUP6 ADD DUP1 SLOAD SWAP2 SWAP1 SWAP10 AND SWAP3 AND SWAP2 SWAP1 SWAP2 OR SWAP1 SWAP7 SSTORE SWAP10 DUP4 ADD MLOAD PUSH32 0x8A35ACFBC15FF81A39AE7D344FD709F28E8600B4AA8C65C6B64BFE7FE36BD19D DUP3 ADD SSTORE SWAP2 ADD MLOAD PUSH32 0x8A35ACFBC15FF81A39AE7D344FD709F28E8600B4AA8C65C6B64BFE7FE36BD19E SWAP1 SWAP2 ADD SSTORE POP SWAP3 SWAP1 SWAP5 ADD DUP1 SLOAD PUSH1 0xFF NOT AND SWAP1 SWAP3 OR SWAP1 SWAP2 SSTORE POP POP POP JUMP JUMPDEST PUSH1 0x0 SLOAD PUSH1 0x1 PUSH1 0x1 PUSH1 0xA0 SHL SUB AND CALLER EQ PUSH2 0x88B JUMPI PUSH1 0x40 MLOAD PUSH3 0x461BCD PUSH1 0xE5 SHL DUP2 MSTORE PUSH1 0x20 PUSH1 0x4 DUP3 ADD DUP2 SWAP1 MSTORE PUSH1 0x24 DUP3 ADD MSTORE PUSH32 0x4F776E61626C653A2063616C6C6572206973206E6F7420746865206F776E6572 PUSH1 0x44 DUP3 ADD MSTORE PUSH1 0x64 ADD PUSH2 0x557 JUMP JUMPDEST PUSH2 0x895 PUSH1 0x0 PUSH2 0x1204 JUMP JUMPDEST JUMP JUMPDEST PUSH1 0x4 DUP2 DUP2 SLOAD DUP2 LT PUSH2 0x8A7 JUMPI PUSH1 0x0 DUP1 REVERT JUMPDEST PUSH1 0x0 SWAP2 DUP3 MSTORE PUSH1 0x20 SWAP1 SWAP2 KECCAK256 PUSH1 0x4 SWAP1 SWAP2 MUL ADD DUP1 SLOAD PUSH1 0x1 DUP3 ADD SLOAD PUSH1 0x2 DUP4 ADD SLOAD PUSH1 0x3 SWAP1 SWAP4 ADD SLOAD PUSH1 0x1 PUSH1 0x1 PUSH1 0xA0 SHL SUB SWAP3 DUP4 AND SWAP5 POP SWAP2 AND SWAP2 SWAP1 DUP5 JUMP JUMPDEST DUP2 PUSH1 0x3 SLOAD DUP2 LT PUSH2 0x8FF JUMPI PUSH1 0x40 MLOAD PUSH3 0x461BCD PUSH1 0xE5 SHL DUP2 MSTORE PUSH1 0x4 ADD PUSH2 0x557 SWAP1 PUSH2 0x1675 JUMP JUMPDEST DUP2 PUSH1 0x2 SLOAD DUP2 LT PUSH2 0x921 JUMPI PUSH1 0x40 MLOAD PUSH3 0x461BCD PUSH1 0xE5 SHL DUP2 MSTORE PUSH1 0x4 ADD PUSH2 0x557 SWAP1 PUSH2 0x15A9 JUMP JUMPDEST PUSH1 0x3 DUP5 DUP2 SLOAD DUP2 LT PUSH2 0x934 JUMPI PUSH2 0x934 PUSH2 0x15F7 JUMP JUMPDEST PUSH1 0x0 SWAP2 DUP3 MSTORE PUSH1 0x20 SWAP1 SWAP2 KECCAK256 PUSH1 0x6 SWAP1 SWAP2 MUL ADD PUSH1 0x5 ADD SLOAD PUSH1 0x1 PUSH1 0x1 PUSH1 0xA0 SHL SUB AND CALLER PUSH1 0x1 PUSH1 0x1 PUSH1 0xA0 SHL SUB AND EQ DUP1 PUSH2 0x99B JUMPI POP PUSH1 0x2 DUP4 DUP2 SLOAD DUP2 LT PUSH2 0x975 JUMPI PUSH2 0x975 PUSH2 0x15F7 JUMP JUMPDEST PUSH1 0x0 SWAP2 DUP3 MSTORE PUSH1 0x20 SWAP1 SWAP2 KECCAK256 PUSH1 0x5 SWAP1 SWAP2 MUL ADD SLOAD PUSH1 0x1 PUSH1 0x1 PUSH1 0xA0 SHL SUB AND CALLER PUSH1 0x1 PUSH1 0x1 PUSH1 0xA0 SHL SUB AND EQ JUMPDEST PUSH2 0xA33 JUMPI PUSH1 0x40 MLOAD PUSH3 0x461BCD PUSH1 0xE5 SHL DUP2 MSTORE PUSH1 0x20 PUSH1 0x4 DUP3 ADD MSTORE PUSH1 0x5D PUSH1 0x24 DUP3 ADD MSTORE PUSH32 0x526F6F6D5265736572766174696F6E733A206F6E6C792074686520726F6F6D73 PUSH1 0x44 DUP3 ADD MSTORE PUSH32 0x206F776E6572206F7220746865207265736572766174696F6E73206F776E6572 PUSH1 0x64 DUP3 ADD MSTORE PUSH32 0x2063616E2064656C6574652074686973207265736572766174696F6E2E000000 PUSH1 0x84 DUP3 ADD MSTORE PUSH1 0xA4 ADD PUSH2 0x557 JUMP JUMPDEST PUSH1 0x0 DUP5 DUP2 MSTORE PUSH1 0x1 PUSH1 0x20 MSTORE PUSH1 0x40 DUP2 KECCAK256 SWAP1 JUMPDEST DUP2 SLOAD DUP2 LT ISZERO PUSH2 0xAED JUMPI DUP5 DUP3 DUP3 DUP2 SLOAD DUP2 LT PUSH2 0xA5F JUMPI PUSH2 0xA5F PUSH2 0x15F7 JUMP JUMPDEST SWAP1 PUSH1 0x0 MSTORE PUSH1 0x20 PUSH1 0x0 KECCAK256 ADD SLOAD SUB PUSH2 0xAE5 JUMPI DUP2 SLOAD DUP3 SWAP1 PUSH2 0xA7F SWAP1 PUSH1 0x1 SWAP1 PUSH2 0x1662 JUMP JUMPDEST DUP2 SLOAD DUP2 LT PUSH2 0xA8F JUMPI PUSH2 0xA8F PUSH2 0x15F7 JUMP JUMPDEST SWAP1 PUSH1 0x0 MSTORE PUSH1 0x20 PUSH1 0x0 KECCAK256 ADD SLOAD DUP3 DUP3 DUP2 SLOAD DUP2 LT PUSH2 0xAAC JUMPI PUSH2 0xAAC PUSH2 0x15F7 JUMP JUMPDEST SWAP1 PUSH1 0x0 MSTORE PUSH1 0x20 PUSH1 0x0 KECCAK256 ADD DUP2 SWAP1 SSTORE POP DUP2 DUP1 SLOAD DUP1 PUSH2 0xACA JUMPI PUSH2 0xACA PUSH2 0x16BC JUMP JUMPDEST PUSH1 0x1 SWAP1 SUB DUP2 DUP2 SWAP1 PUSH1 0x0 MSTORE PUSH1 0x20 PUSH1 0x0 KECCAK256 ADD PUSH1 0x0 SWAP1 SSTORE SWAP1 SSTORE PUSH2 0xAED JUMP JUMPDEST PUSH1 0x1 ADD PUSH2 0xA43 JUMP JUMPDEST POP POP POP POP POP POP JUMP JUMPDEST DUP4 PUSH1 0x3 SLOAD DUP2 LT PUSH2 0xB17 JUMPI PUSH1 0x40 MLOAD PUSH3 0x461BCD PUSH1 0xE5 SHL DUP2 MSTORE PUSH1 0x4 ADD PUSH2 0x557 SWAP1 PUSH2 0x1675 JUMP JUMPDEST PUSH1 0x3 DUP6 DUP2 SLOAD DUP2 LT PUSH2 0xB2A JUMPI PUSH2 0xB2A PUSH2 0x15F7 JUMP JUMPDEST SWAP1 PUSH1 0x0 MSTORE PUSH1 0x20 PUSH1 0x0 KECCAK256 SWAP1 PUSH1 0x6 MUL ADD PUSH1 0x5 ADD PUSH1 0x14 SWAP1 SLOAD SWAP1 PUSH2 0x100 EXP SWAP1 DIV PUSH1 0xFF AND PUSH2 0xBAB JUMPI PUSH1 0x40 MLOAD PUSH3 0x461BCD PUSH1 0xE5 SHL DUP2 MSTORE PUSH1 0x20 PUSH1 0x4 DUP3 ADD MSTORE PUSH1 0x2D PUSH1 0x24 DUP3 ADD MSTORE PUSH32 0x526F6F6D5265736572766174696F6E733A205468697320726F6F6D206973206E PUSH1 0x44 DUP3 ADD MSTORE PUSH13 0x37BA1030BB30B4B630B1363297 PUSH1 0x99 SHL PUSH1 0x64 DUP3 ADD MSTORE PUSH1 0x84 ADD PUSH2 0x557 JUMP JUMPDEST DUP2 ISZERO PUSH2 0xD0E JUMPI PUSH2 0xBB9 PUSH2 0x1254 JUMP JUMPDEST PUSH1 0x0 JUMPDEST PUSH1 0x0 DUP8 DUP2 MSTORE PUSH1 0x1 PUSH1 0x20 MSTORE PUSH1 0x40 SWAP1 KECCAK256 SLOAD DUP2 LT ISZERO PUSH2 0xD02 JUMPI PUSH1 0x0 DUP8 DUP2 MSTORE PUSH1 0x1 PUSH1 0x20 MSTORE PUSH1 0x40 SWAP1 KECCAK256 DUP1 SLOAD PUSH1 0x2 SWAP2 SWAP1 DUP4 SWAP1 DUP2 LT PUSH2 0xBF6 JUMPI PUSH2 0xBF6 PUSH2 0x15F7 JUMP JUMPDEST SWAP1 PUSH1 0x0 MSTORE PUSH1 0x20 PUSH1 0x0 KECCAK256 ADD SLOAD DUP2 SLOAD DUP2 LT PUSH2 0xC11 JUMPI PUSH2 0xC11 PUSH2 0x15F7 JUMP JUMPDEST PUSH1 0x0 SWAP2 DUP3 MSTORE PUSH1 0x20 SWAP2 DUP3 SWAP1 KECCAK256 PUSH1 0x40 DUP1 MLOAD PUSH1 0xA0 DUP2 ADD DUP3 MSTORE PUSH1 0x5 SWAP1 SWAP4 MUL SWAP1 SWAP2 ADD DUP1 SLOAD PUSH1 0x1 PUSH1 0x1 PUSH1 0xA0 SHL SUB AND DUP4 MSTORE PUSH1 0x1 DUP2 ADD SLOAD SWAP4 DUP4 ADD SWAP4 SWAP1 SWAP4 MSTORE PUSH1 0x2 DUP4 ADD SLOAD SWAP1 DUP3 ADD MSTORE PUSH1 0x3 DUP3 ADD SLOAD PUSH1 0x60 DUP3 ADD DUP2 SWAP1 MSTORE PUSH1 0x4 SWAP1 SWAP3 ADD SLOAD PUSH1 0xFF AND ISZERO ISZERO PUSH1 0x80 DUP3 ADD MSTORE SWAP3 POP DUP7 GT DUP1 PUSH2 0xC7E JUMPI POP DUP2 PUSH1 0x40 ADD MLOAD DUP6 LT JUMPDEST PUSH2 0xCFA JUMPI PUSH1 0x40 MLOAD PUSH3 0x461BCD PUSH1 0xE5 SHL DUP2 MSTORE PUSH1 0x20 PUSH1 0x4 DUP3 ADD MSTORE PUSH1 0x41 PUSH1 0x24 DUP3 ADD MSTORE PUSH32 0x526F6F6D5265736572766174696F6E733A205468697320726F6F6D2069732061 PUSH1 0x44 DUP3 ADD MSTORE PUSH32 0x6C726561647920726573657276656420647572696E6720746869732064617465 PUSH1 0x64 DUP3 ADD MSTORE PUSH1 0x17 PUSH1 0xF9 SHL PUSH1 0x84 DUP3 ADD MSTORE PUSH1 0xA4 ADD PUSH2 0x557 JUMP JUMPDEST PUSH1 0x1 ADD PUSH2 0xBBC JUMP JUMPDEST POP PUSH2 0xD0B PUSH2 0x1254 JUMP JUMPDEST POP POP JUMPDEST PUSH1 0x0 PUSH1 0x40 MLOAD DUP1 PUSH1 0xA0 ADD PUSH1 0x40 MSTORE DUP1 PUSH2 0xD22 CALLER SWAP1 JUMP JUMPDEST PUSH1 0x1 PUSH1 0x1 PUSH1 0xA0 SHL SUB SWAP1 DUP2 AND DUP3 MSTORE PUSH1 0x20 DUP1 DUP4 ADD DUP11 SWAP1 MSTORE PUSH1 0x40 DUP1 DUP5 ADD DUP11 SWAP1 MSTORE PUSH1 0x60 DUP1 DUP6 ADD DUP11 SWAP1 MSTORE PUSH1 0x0 PUSH1 0x80 SWAP6 DUP7 ADD DUP2 SWAP1 MSTORE PUSH1 0x2 DUP1 SLOAD PUSH1 0x1 DUP1 DUP3 ADD DUP4 SSTORE DUP3 DUP5 MSTORE DUP10 MLOAD PUSH32 0x405787FA12A823E0F2B7631CC41B3BA8828B3321CA811111FA75CD3AA3BB5ACE PUSH1 0x5 SWAP1 SWAP4 MUL SWAP3 DUP4 ADD DUP1 SLOAD PUSH1 0x1 PUSH1 0x1 PUSH1 0xA0 SHL SUB NOT AND SWAP2 SWAP1 SWAP10 AND OR SWAP1 SWAP8 SSTORE DUP9 DUP7 ADD MLOAD PUSH32 0x405787FA12A823E0F2B7631CC41B3BA8828B3321CA811111FA75CD3AA3BB5ACF DUP3 ADD SSTORE DUP9 DUP6 ADD MLOAD PUSH32 0x405787FA12A823E0F2B7631CC41B3BA8828B3321CA811111FA75CD3AA3BB5AD0 DUP3 ADD SSTORE SWAP3 DUP9 ADD MLOAD PUSH32 0x405787FA12A823E0F2B7631CC41B3BA8828B3321CA811111FA75CD3AA3BB5AD1 DUP5 ADD SSTORE SWAP6 DUP8 ADD MLOAD PUSH32 0x405787FA12A823E0F2B7631CC41B3BA8828B3321CA811111FA75CD3AA3BB5AD2 SWAP1 SWAP3 ADD DUP1 SLOAD PUSH1 0xFF NOT AND SWAP3 ISZERO ISZERO SWAP3 SWAP1 SWAP3 OR SWAP1 SWAP2 SSTORE DUP12 DUP2 MSTORE SWAP2 DUP4 SWAP1 MSTORE SWAP1 KECCAK256 SWAP2 SLOAD SWAP3 SWAP4 POP SWAP1 SWAP2 PUSH2 0xE68 SWAP2 SWAP1 PUSH2 0x1662 JUMP JUMPDEST DUP2 SLOAD PUSH1 0x1 DUP2 ADD DUP4 SSTORE PUSH1 0x0 SWAP3 DUP4 MSTORE PUSH1 0x20 SWAP1 SWAP3 KECCAK256 SWAP1 SWAP2 ADD SSTORE POP POP POP POP POP POP JUMP JUMPDEST DUP2 PUSH1 0x3 SLOAD DUP2 LT PUSH2 0xEA8 JUMPI PUSH1 0x40 MLOAD PUSH3 0x461BCD PUSH1 0xE5 SHL DUP2 MSTORE PUSH1 0x4 ADD PUSH2 0x557 SWAP1 PUSH2 0x1675 JUMP JUMPDEST PUSH1 0x0 PUSH1 0x3 DUP5 DUP2 SLOAD DUP2 LT PUSH2 0xEBD JUMPI PUSH2 0xEBD PUSH2 0x15F7 JUMP JUMPDEST PUSH1 0x0 SWAP2 DUP3 MSTORE PUSH1 0x20 SWAP1 SWAP2 KECCAK256 PUSH1 0x6 SWAP1 SWAP2 MUL ADD PUSH1 0x5 DUP2 ADD SLOAD SWAP1 SWAP2 POP PUSH1 0x1 PUSH1 0x1 PUSH1 0xA0 SHL SUB AND CALLER PUSH1 0x1 PUSH1 0x1 PUSH1 0xA0 SHL SUB AND EQ PUSH2 0xF69 JUMPI PUSH1 0x40 MLOAD PUSH3 0x461BCD PUSH1 0xE5 SHL DUP2 MSTORE PUSH1 0x20 PUSH1 0x4 DUP3 ADD MSTORE PUSH1 0x45 PUSH1 0x24 DUP3 ADD MSTORE PUSH32 0x526F6F6D5265736572766174696F6E733A206F6E6C792074686520726F6F6D73 PUSH1 0x44 DUP3 ADD MSTORE PUSH32 0x206F776E65722063616E20757064617465207265736572766174696F6E207374 PUSH1 0x64 DUP3 ADD MSTORE PUSH5 0x30BA3AB997 PUSH1 0xD9 SHL PUSH1 0x84 DUP3 ADD MSTORE PUSH1 0xA4 ADD PUSH2 0x557 JUMP JUMPDEST DUP3 ISZERO ISZERO DUP2 PUSH1 0x5 ADD PUSH1 0x14 SWAP1 SLOAD SWAP1 PUSH2 0x100 EXP SWAP1 DIV PUSH1 0xFF AND ISZERO ISZERO SUB PUSH2 0xFF3 JUMPI PUSH1 0x40 MLOAD PUSH3 0x461BCD PUSH1 0xE5 SHL DUP2 MSTORE PUSH1 0x20 PUSH1 0x4 DUP3 ADD MSTORE PUSH1 0x3A PUSH1 0x24 DUP3 ADD MSTORE PUSH32 0x526F6F6D5265736572766174696F6E733A2043616E206E6F7420736574206361 PUSH1 0x44 DUP3 ADD MSTORE PUSH32 0x6E52657365727665203D20746F2073616D65207374617475732E000000000000 PUSH1 0x64 DUP3 ADD MSTORE PUSH1 0x84 ADD PUSH2 0x557 JUMP JUMPDEST PUSH1 0x5 ADD DUP1 SLOAD SWAP3 ISZERO ISZERO PUSH1 0x1 PUSH1 0xA0 SHL MUL PUSH1 0xFF PUSH1 0xA0 SHL NOT SWAP1 SWAP4 AND SWAP3 SWAP1 SWAP3 OR SWAP1 SWAP2 SSTORE POP POP JUMP JUMPDEST PUSH1 0x0 PUSH1 0x40 MLOAD DUP1 PUSH1 0xE0 ADD PUSH1 0x40 MSTORE DUP1 DUP8 DUP2 MSTORE PUSH1 0x20 ADD DUP7 DUP2 MSTORE PUSH1 0x20 ADD PUSH1 0x1 PUSH1 0x3 DUP1 SLOAD SWAP1 POP PUSH2 0x1040 SWAP2 SWAP1 PUSH2 0x1662 JUMP JUMPDEST DUP2 MSTORE PUSH1 0x20 ADD DUP6 DUP2 MSTORE PUSH1 0x20 ADD DUP5 DUP2 MSTORE PUSH1 0x20 ADD PUSH2 0x1058 CALLER SWAP1 JUMP JUMPDEST PUSH1 0x1 PUSH1 0x1 PUSH1 0xA0 SHL SUB AND DUP2 MSTORE DUP4 ISZERO ISZERO PUSH1 0x20 SWAP1 SWAP2 ADD MSTORE PUSH1 0x3 DUP1 SLOAD PUSH1 0x1 DUP2 ADD DUP3 SSTORE PUSH1 0x0 SWAP2 SWAP1 SWAP2 MSTORE DUP2 MLOAD SWAP2 SWAP3 POP DUP3 SWAP2 PUSH1 0x6 SWAP1 SWAP2 MUL PUSH32 0xC2575A0E9E593C00F959F8C92F12DB2869C3395A3B0502D05E2516446F71F85B ADD SWAP1 DUP2 SWAP1 PUSH2 0x10B7 SWAP1 DUP3 PUSH2 0x171F JUMP JUMPDEST POP PUSH1 0x20 DUP3 ADD MLOAD PUSH1 0x1 DUP3 ADD SWAP1 PUSH2 0x10CC SWAP1 DUP3 PUSH2 0x171F JUMP JUMPDEST POP PUSH1 0x40 DUP3 ADD MLOAD PUSH1 0x2 DUP3 ADD SSTORE PUSH1 0x60 DUP3 ADD MLOAD PUSH1 0x3 DUP3 ADD SWAP1 PUSH2 0x10EB SWAP1 DUP3 PUSH2 0x171F JUMP JUMPDEST POP PUSH1 0x80 DUP3 ADD MLOAD PUSH1 0x4 DUP3 ADD SSTORE PUSH1 0xA0 DUP3 ADD MLOAD PUSH1 0x5 SWAP1 SWAP2 ADD DUP1 SLOAD PUSH1 0xC0 SWAP1 SWAP4 ADD MLOAD ISZERO ISZERO PUSH1 0x1 PUSH1 0xA0 SHL MUL PUSH1 0x1 PUSH1 0x1 PUSH1 0xA8 SHL SUB NOT SWAP1 SWAP4 AND PUSH1 0x1 PUSH1 0x1 PUSH1 0xA0 SHL SUB SWAP1 SWAP3 AND SWAP2 SWAP1 SWAP2 OR SWAP2 SWAP1 SWAP2 OR SWAP1 SSTORE POP POP POP POP POP POP JUMP JUMPDEST PUSH1 0x0 SLOAD PUSH1 0x1 PUSH1 0x1 PUSH1 0xA0 SHL SUB AND CALLER EQ PUSH2 0x1193 JUMPI PUSH1 0x40 MLOAD PUSH3 0x461BCD PUSH1 0xE5 SHL DUP2 MSTORE PUSH1 0x20 PUSH1 0x4 DUP3 ADD DUP2 SWAP1 MSTORE PUSH1 0x24 DUP3 ADD MSTORE PUSH32 0x4F776E61626C653A2063616C6C6572206973206E6F7420746865206F776E6572 PUSH1 0x44 DUP3 ADD MSTORE PUSH1 0x64 ADD PUSH2 0x557 JUMP JUMPDEST PUSH1 0x1 PUSH1 0x1 PUSH1 0xA0 SHL SUB DUP2 AND PUSH2 0x11F8 JUMPI PUSH1 0x40 MLOAD PUSH3 0x461BCD PUSH1 0xE5 SHL DUP2 MSTORE PUSH1 0x20 PUSH1 0x4 DUP3 ADD MSTORE PUSH1 0x26 PUSH1 0x24 DUP3 ADD MSTORE PUSH32 0x4F776E61626C653A206E6577206F776E657220697320746865207A65726F2061 PUSH1 0x44 DUP3 ADD MSTORE PUSH6 0x646472657373 PUSH1 0xD0 SHL PUSH1 0x64 DUP3 ADD MSTORE PUSH1 0x84 ADD PUSH2 0x557 JUMP JUMPDEST PUSH2 0x1201 DUP2 PUSH2 0x1204 JUMP JUMPDEST POP JUMP JUMPDEST PUSH1 0x0 DUP1 SLOAD PUSH1 0x1 PUSH1 0x1 PUSH1 0xA0 SHL SUB DUP4 DUP2 AND PUSH1 0x1 PUSH1 0x1 PUSH1 0xA0 SHL SUB NOT DUP4 AND DUP2 OR DUP5 SSTORE PUSH1 0x40 MLOAD SWAP2 SWAP1 SWAP3 AND SWAP3 DUP4 SWAP2 PUSH32 0x8BE0079C531659141344CD1FD0A4F28419497F9722A3DAAFE3B4186F6B6457E0 SWAP2 SWAP1 LOG3 POP POP JUMP JUMPDEST PUSH1 0x40 MLOAD DUP1 PUSH1 0xA0 ADD PUSH1 0x40 MSTORE DUP1 PUSH1 0x0 PUSH1 0x1 PUSH1 0x1 PUSH1 0xA0 SHL SUB AND DUP2 MSTORE PUSH1 0x20 ADD PUSH1 0x0 DUP2 MSTORE PUSH1 0x20 ADD PUSH1 0x0 DUP2 MSTORE PUSH1 0x20 ADD PUSH1 0x0 DUP2 MSTORE PUSH1 0x20 ADD PUSH1 0x0 ISZERO ISZERO DUP2 MSTORE POP SWAP1 JUMP JUMPDEST PUSH1 0x0 PUSH1 0x20 DUP3 DUP5 SUB SLT ISZERO PUSH2 0x12A0 JUMPI PUSH1 0x0 DUP1 REVERT JUMPDEST POP CALLDATALOAD SWAP2 SWAP1 POP JUMP JUMPDEST PUSH1 0x0 DUP2 MLOAD DUP1 DUP5 MSTORE PUSH1 0x0 JUMPDEST DUP2 DUP2 LT ISZERO PUSH2 0x12CD JUMPI PUSH1 0x20 DUP2 DUP6 ADD DUP2 ADD MLOAD DUP7 DUP4 ADD DUP3 ADD MSTORE ADD PUSH2 0x12B1 JUMP JUMPDEST POP PUSH1 0x0 PUSH1 0x20 DUP3 DUP7 ADD ADD MSTORE PUSH1 0x20 PUSH1 0x1F NOT PUSH1 0x1F DUP4 ADD AND DUP6 ADD ADD SWAP2 POP POP SWAP3 SWAP2 POP POP JUMP JUMPDEST PUSH1 0xE0 DUP2 MSTORE PUSH1 0x0 PUSH2 0x1300 PUSH1 0xE0 DUP4 ADD DUP11 PUSH2 0x12A7 JUMP JUMPDEST DUP3 DUP2 SUB PUSH1 0x20 DUP5 ADD MSTORE PUSH2 0x1312 DUP2 DUP11 PUSH2 0x12A7 JUMP JUMPDEST SWAP1 POP DUP8 PUSH1 0x40 DUP5 ADD MSTORE DUP3 DUP2 SUB PUSH1 0x60 DUP5 ADD MSTORE PUSH2 0x132C DUP2 DUP9 PUSH2 0x12A7 JUMP JUMPDEST PUSH1 0x80 DUP5 ADD SWAP7 SWAP1 SWAP7 MSTORE POP POP PUSH1 0x1 PUSH1 0x1 PUSH1 0xA0 SHL SUB SWAP3 SWAP1 SWAP3 AND PUSH1 0xA0 DUP4 ADD MSTORE ISZERO ISZERO PUSH1 0xC0 SWAP1 SWAP2 ADD MSTORE SWAP5 SWAP4 POP POP POP POP JUMP JUMPDEST PUSH1 0x0 DUP1 PUSH1 0x40 DUP4 DUP6 SUB SLT ISZERO PUSH2 0x136A JUMPI PUSH1 0x0 DUP1 REVERT JUMPDEST POP POP DUP1 CALLDATALOAD SWAP3 PUSH1 0x20 SWAP1 SWAP2 ADD CALLDATALOAD SWAP2 POP JUMP JUMPDEST DUP1 CALLDATALOAD DUP1 ISZERO ISZERO DUP2 EQ PUSH2 0x1389 JUMPI PUSH1 0x0 DUP1 REVERT JUMPDEST SWAP2 SWAP1 POP JUMP JUMPDEST PUSH1 0x0 DUP1 PUSH1 0x0 DUP1 PUSH1 0x80 DUP6 DUP8 SUB SLT ISZERO PUSH2 0x13A4 JUMPI PUSH1 0x0 DUP1 REVERT JUMPDEST DUP5 CALLDATALOAD SWAP4 POP PUSH1 0x20 DUP6 ADD CALLDATALOAD SWAP3 POP PUSH1 0x40 DUP6 ADD CALLDATALOAD SWAP2 POP PUSH2 0x13C2 PUSH1 0x60 DUP7 ADD PUSH2 0x1379 JUMP JUMPDEST SWAP1 POP SWAP3 SWAP6 SWAP2 SWAP5 POP SWAP3 POP JUMP JUMPDEST PUSH1 0x0 DUP1 PUSH1 0x40 DUP4 DUP6 SUB SLT ISZERO PUSH2 0x13E0 JUMPI PUSH1 0x0 DUP1 REVERT JUMPDEST DUP3 CALLDATALOAD SWAP2 POP PUSH2 0x13F0 PUSH1 0x20 DUP5 ADD PUSH2 0x1379 JUMP JUMPDEST SWAP1 POP SWAP3 POP SWAP3 SWAP1 POP JUMP JUMPDEST PUSH4 0x4E487B71 PUSH1 0xE0 SHL PUSH1 0x0 MSTORE PUSH1 0x41 PUSH1 0x4 MSTORE PUSH1 0x24 PUSH1 0x0 REVERT JUMPDEST PUSH1 0x0 DUP3 PUSH1 0x1F DUP4 ADD SLT PUSH2 0x1420 JUMPI PUSH1 0x0 DUP1 REVERT JUMPDEST DUP2 CALLDATALOAD PUSH8 0xFFFFFFFFFFFFFFFF DUP1 DUP3 GT ISZERO PUSH2 0x143B JUMPI PUSH2 0x143B PUSH2 0x13F9 JUMP JUMPDEST PUSH1 0x40 MLOAD PUSH1 0x1F DUP4 ADD PUSH1 0x1F NOT SWAP1 DUP2 AND PUSH1 0x3F ADD AND DUP2 ADD SWAP1 DUP3 DUP3 GT DUP2 DUP4 LT OR ISZERO PUSH2 0x1463 JUMPI PUSH2 0x1463 PUSH2 0x13F9 JUMP JUMPDEST DUP2 PUSH1 0x40 MSTORE DUP4 DUP2 MSTORE DUP7 PUSH1 0x20 DUP6 DUP9 ADD ADD GT ISZERO PUSH2 0x147C JUMPI PUSH1 0x0 DUP1 REVERT JUMPDEST DUP4 PUSH1 0x20 DUP8 ADD PUSH1 0x20 DUP4 ADD CALLDATACOPY PUSH1 0x0 PUSH1 0x20 DUP6 DUP4 ADD ADD MSTORE DUP1 SWAP5 POP POP POP POP POP SWAP3 SWAP2 POP POP JUMP JUMPDEST PUSH1 0x0 DUP1 PUSH1 0x0 DUP1 PUSH1 0x0 PUSH1 0xA0 DUP7 DUP9 SUB SLT ISZERO PUSH2 0x14B4 JUMPI PUSH1 0x0 DUP1 REVERT JUMPDEST DUP6 CALLDATALOAD PUSH8 0xFFFFFFFFFFFFFFFF DUP1 DUP3 GT ISZERO PUSH2 0x14CC JUMPI PUSH1 0x0 DUP1 REVERT JUMPDEST PUSH2 0x14D8 DUP10 DUP4 DUP11 ADD PUSH2 0x140F JUMP JUMPDEST SWAP7 POP PUSH1 0x20 DUP9 ADD CALLDATALOAD SWAP2 POP DUP1 DUP3 GT ISZERO PUSH2 0x14EE JUMPI PUSH1 0x0 DUP1 REVERT JUMPDEST PUSH2 0x14FA DUP10 DUP4 DUP11 ADD PUSH2 0x140F JUMP JUMPDEST SWAP6 POP PUSH1 0x40 DUP9 ADD CALLDATALOAD SWAP2 POP DUP1 DUP3 GT ISZERO PUSH2 0x1510 JUMPI PUSH1 0x0 DUP1 REVERT JUMPDEST POP PUSH2 0x151D DUP9 DUP3 DUP10 ADD PUSH2 0x140F JUMP JUMPDEST SWAP4 POP POP PUSH1 0x60 DUP7 ADD CALLDATALOAD SWAP2 POP PUSH2 0x1533 PUSH1 0x80 DUP8 ADD PUSH2 0x1379 JUMP JUMPDEST SWAP1 POP SWAP3 SWAP6 POP SWAP3 SWAP6 SWAP1 SWAP4 POP JUMP JUMPDEST PUSH1 0x0 PUSH1 0x20 DUP3 DUP5 SUB SLT ISZERO PUSH2 0x1551 JUMPI PUSH1 0x0 DUP1 REVERT JUMPDEST DUP2 CALLDATALOAD PUSH1 0x1 PUSH1 0x1 PUSH1 0xA0 SHL SUB DUP2 AND DUP2 EQ PUSH2 0x1568 JUMPI PUSH1 0x0 DUP1 REVERT JUMPDEST SWAP4 SWAP3 POP POP POP JUMP JUMPDEST PUSH1 0x1 DUP2 DUP2 SHR SWAP1 DUP3 AND DUP1 PUSH2 0x1583 JUMPI PUSH1 0x7F DUP3 AND SWAP2 POP JUMPDEST PUSH1 0x20 DUP3 LT DUP2 SUB PUSH2 0x15A3 JUMPI PUSH4 0x4E487B71 PUSH1 0xE0 SHL PUSH1 0x0 MSTORE PUSH1 0x22 PUSH1 0x4 MSTORE PUSH1 0x24 PUSH1 0x0 REVERT JUMPDEST POP SWAP2 SWAP1 POP JUMP JUMPDEST PUSH1 0x20 DUP1 DUP3 MSTORE PUSH1 0x2E SWAP1 DUP3 ADD MSTORE PUSH32 0x526F6F6D5265736572766174696F6E733A207265736572766174696F6E496420 PUSH1 0x40 DUP3 ADD MSTORE PUSH14 0x37BABA1037B3103137BAB7323997 PUSH1 0x91 SHL PUSH1 0x60 DUP3 ADD MSTORE PUSH1 0x80 ADD SWAP1 JUMP JUMPDEST PUSH4 0x4E487B71 PUSH1 0xE0 SHL PUSH1 0x0 MSTORE PUSH1 0x32 PUSH1 0x4 MSTORE PUSH1 0x24 PUSH1 0x0 REVERT JUMPDEST PUSH4 0x4E487B71 PUSH1 0xE0 SHL PUSH1 0x0 MSTORE PUSH1 0x11 PUSH1 0x4 MSTORE PUSH1 0x24 PUSH1 0x0 REVERT JUMPDEST DUP1 DUP3 MUL DUP2 ISZERO DUP3 DUP3 DIV DUP5 EQ OR PUSH2 0x163A JUMPI PUSH2 0x163A PUSH2 0x160D JUMP JUMPDEST SWAP3 SWAP2 POP POP JUMP JUMPDEST PUSH1 0x0 DUP3 PUSH2 0x165D JUMPI PUSH4 0x4E487B71 PUSH1 0xE0 SHL PUSH1 0x0 MSTORE PUSH1 0x12 PUSH1 0x4 MSTORE PUSH1 0x24 PUSH1 0x0 REVERT JUMPDEST POP DIV SWAP1 JUMP JUMPDEST DUP2 DUP2 SUB DUP2 DUP2 GT ISZERO PUSH2 0x163A JUMPI PUSH2 0x163A PUSH2 0x160D JUMP JUMPDEST PUSH1 0x20 DUP1 DUP3 MSTORE PUSH1 0x27 SWAP1 DUP3 ADD MSTORE PUSH32 0x526F6F6D5265736572766174696F6E733A20726F6F6D4964206F7574206F6620 PUSH1 0x40 DUP3 ADD MSTORE PUSH7 0x3137BAB7323997 PUSH1 0xC9 SHL PUSH1 0x60 DUP3 ADD MSTORE PUSH1 0x80 ADD SWAP1 JUMP JUMPDEST PUSH4 0x4E487B71 PUSH1 0xE0 SHL PUSH1 0x0 MSTORE PUSH1 0x31 PUSH1 0x4 MSTORE PUSH1 0x24 PUSH1 0x0 REVERT JUMPDEST PUSH1 0x1F DUP3 GT ISZERO PUSH2 0x171A JUMPI PUSH1 0x0 DUP2 PUSH1 0x0 MSTORE PUSH1 0x20 PUSH1 0x0 KECCAK256 PUSH1 0x1F DUP6 ADD PUSH1 0x5 SHR DUP2 ADD PUSH1 0x20 DUP7 LT ISZERO PUSH2 0x16FB JUMPI POP DUP1 JUMPDEST PUSH1 0x1F DUP6 ADD PUSH1 0x5 SHR DUP3 ADD SWAP2 POP JUMPDEST DUP2 DUP2 LT ISZERO PUSH2 0xAED JUMPI DUP3 DUP2 SSTORE PUSH1 0x1 ADD PUSH2 0x1707 JUMP JUMPDEST POP POP POP JUMP JUMPDEST DUP2 MLOAD PUSH8 0xFFFFFFFFFFFFFFFF DUP2 GT ISZERO PUSH2 0x1739 JUMPI PUSH2 0x1739 PUSH2 0x13F9 JUMP JUMPDEST PUSH2 0x174D DUP2 PUSH2 0x1747 DUP5 SLOAD PUSH2 0x156F JUMP JUMPDEST DUP5 PUSH2 0x16D2 JUMP JUMPDEST PUSH1 0x20 DUP1 PUSH1 0x1F DUP4 GT PUSH1 0x1 DUP2 EQ PUSH2 0x1782 JUMPI PUSH1 0x0 DUP5 ISZERO PUSH2 0x176A JUMPI POP DUP6 DUP4 ADD MLOAD JUMPDEST PUSH1 0x0 NOT PUSH1 0x3 DUP7 SWAP1 SHL SHR NOT AND PUSH1 0x1 DUP6 SWAP1 SHL OR DUP6 SSTORE PUSH2 0xAED JUMP JUMPDEST PUSH1 0x0 DUP6 DUP2 MSTORE PUSH1 0x20 DUP2 KECCAK256 PUSH1 0x1F NOT DUP7 AND SWAP2 JUMPDEST DUP3 DUP2 LT ISZERO PUSH2 0x17B1 JUMPI DUP9 DUP7 ADD MLOAD DUP3 SSTORE SWAP5 DUP5 ADD SWAP5 PUSH1 0x1 SWAP1 SWAP2 ADD SWAP1 DUP5 ADD PUSH2 0x1792 JUMP JUMPDEST POP DUP6 DUP3 LT ISZERO PUSH2 0x17CF JUMPI DUP8 DUP6 ADD MLOAD PUSH1 0x0 NOT PUSH1 0x3 DUP9 SWAP1 SHL PUSH1 0xF8 AND SHR NOT AND DUP2 SSTORE JUMPDEST POP POP POP POP POP PUSH1 0x1 SWAP1 DUP2 SHL ADD SWAP1 SSTORE POP JUMP INVALID LOG2 PUSH5 0x6970667358 0x22 SLT KECCAK256 PUSH12 0x8F6FF742173072421E33FF48 SWAP10 0xCA SLOAD MCOPY ADD NOT SWAP14 0x27 0xA5 0xBD 0xC1 0x26 0xBB 0xB3 0x23 BLOBHASH PUSH31 0xDA3564736F6C63430008190033000000000000000000000000000000000000 ",
  "sha1": "6f7cc7baae070054d311049f2cef4283e1b81986",
  "source": "// SPDX-License-Identifier: UNLICENSED\n\npragma solidity ^0.8.20;\n\nimport \"./Ownable.sol\";\n\n/**\n    @title RoomReservations\n    @author Jordan Castro\n    @notice Smart Contract for creating, reserving, and paying for rooms on the Polygon Blockchain.\n*/\ncontract RoomReservations is Ownable {\n    struct Room {\n        string title; // A custom title for the room\n        string physicalAddress; // The physical address\n        uint256 id; // The id of the room\n        string image; // A image of the room\n        uint256 price; // The price for the room\n        address owner; // The rooms owner i.e. the address that uploaded the room.\n        bool canReserve; // Is the room available for reservations?\n    }\n    struct Reservation {\n        address reserver; // The one who has the reservation\n        uint256 roomId; // The id of the room\n        uint256 startDate; // What day does the reservation start\n        uint256 endDate; // What day does the reservation end\n        bool isPaid; // Is the reservation paid?\n    }\n    struct Payment {\n        address payer; // The address paying for the reservation\n        address payee; // The address being payed for the reservation\n        uint256 datePaid; // The date the payment went through\n        uint256 reservationId; // The id of the reservation the payment is for\n    }\n\n    // A mapping to track room reservations\n    mapping(uint256 => uint256[]) private reservationsFor;\n\n    // A list of all reservations (previous, current, future)\n    Reservation[] public reservations;\n    // A list of all rooms\n    Room[] public rooms;\n    // A list of all payments\n    Payment[] public payments;\n\n    constructor() {\n        rooms.push(Room(\n            \"Room Zero\",\n            \"\",\n            0,\n            \"\",\n            0,\n            address(this),\n            false\n        ));\n        reservations.push(Reservation(\n            address(this),\n            0,\n            0,\n            0,\n            true\n        ));\n        payments.push(Payment(\n            address(this),\n            address(this),\n            0,\n            0\n        ));\n    }\n\n    // Make sure any ether sent will be kept by contract\n    fallback() external payable {}\n    receive() external payable {}\n\n    /**\n        @dev Verify the room exists and is not out of bounds\n     */\n    modifier roomExists(uint256 roomId) {\n        require(\n            roomId >= 0 && roomId < rooms.length,\n            \"RoomReservations: roomId out of bounds.\"\n        );\n        _;\n    }\n\n    /**\n        @dev Verify the reservation exists and is not out of bounds\n     */\n    modifier reservationExists(uint256 reservationId) {\n        require(\n            reservationId >= 0 && reservationId < reservations.length,\n            \"RoomReservations: reservationId out of bounds.\"\n        );\n        _;\n    }\n\n    /**\n        @dev add a new room from data to list and set map id. \n        The amount of wei is determined by the compiler\n        @notice This is to add a new room.\n     */\n    function addRoom(\n        string memory _title,\n        string memory _physicalAddress,\n        string memory _image,\n        uint256 _price,\n        bool _canReserve\n    ) public {\n        // Make a new room\n        Room memory newRoom = Room(\n            _title,\n            _physicalAddress,\n            rooms.length - 1,\n            _image,\n            _price,\n            _msgSender(),\n            _canReserve\n        );\n\n        // Add room to list\n        rooms.push(newRoom);\n    }\n\n    /**\n        @dev Add new reservation to list. \n        The amount of wei is determined by the compiler. \n        Checks that room id exists.\n        @notice This is to make a new reservation.\n        The room is reserved by whoever made the call.\n     */\n    function makeReservation(\n        uint256 roomId,\n        uint256 startDate,\n        uint256 endDate,\n        bool checkReserved // If false, it assumes you know that the dates are not currently already reserved.\n    ) public roomExists(roomId) {\n        // Check if the room can be reserved\n        require(\n            rooms[roomId].canReserve,\n            \"RoomReservations: This room is not available.\"\n        );\n        // Only check if defined in the call.\n        if (checkReserved) {\n            Reservation memory r;\n            // Check room is not currently reserved\n            for (uint256 i = 0; i < reservationsFor[roomId].length; i++) {\n                r = reservations[reservationsFor[roomId][i]];\n                require(\n                    startDate > r.endDate || endDate < r.startDate,\n                    \"RoomReservations: This room is already reserved during this date.\"\n                );\n            }\n            // Drop r from memory\n            delete r;\n        }\n\n        // Make a reservation\n        Reservation memory newReservation = Reservation(\n            _msgSender(),\n            roomId,\n            startDate,\n            endDate,\n            false\n        );\n        // Add to list\n        reservations.push(newReservation);\n        // Add reservation to room\n        reservationsFor[roomId].push(reservations.length - 1);\n    }\n\n    /**\n        @dev Adds new payment to list.\n        And sets wei or ether on contract.\n        @notice This handles payments.\n        Lodges a new payment into our smart contract data.\n        In order to receive payment you must use the withdraw() function.\n    */\n    function makePayment(\n        uint256 reservationId\n    ) public payable reservationExists(reservationId) {\n        // Check payment amout matches reservation\n        require(\n            rooms[reservations[reservationId].roomId].price == msg.value,\n            \"RoomReservations: msg.value does not match the room price.\"\n        );\n\n        Reservation storage reservation = reservations[reservationId];\n\n        // Calculate fees\n        uint256 propertyFee = (msg.value * 95) / 100;\n        uint256 contractFee = msg.value - propertyFee;\n\n        // Owner address\n        address payable roomOwner = payable(rooms[reservation.roomId].owner);\n\n        // Make payments\n        roomOwner.transfer(propertyFee);\n        payable(owner()).transfer(contractFee);\n\n        // Add payment\n        Payment memory newPayment = Payment(\n            _msgSender(),\n            roomOwner,\n            block.timestamp, // Right now\n            reservationId\n        );\n        payments.push(newPayment);\n\n        // Update .isPaid on reservation\n        reservation.isPaid = true;\n    }\n\n    /**\n        @dev Remove reservation from room.\n        @notice Delete a reservation.\n        Is based off the rooms ID.\n    */\n    function deleteReservation(\n        uint256 roomId,\n        uint256 reservationId\n    ) public roomExists(roomId) reservationExists(reservationId) {\n        // Check the address calling this method is either\n        // A. the owner of the room\n        // B. the reserver of the reservation\n        require(\n            _msgSender() == rooms[roomId].owner ||\n                _msgSender() == reservations[reservationId].reserver,\n            \"RoomReservations: only the rooms owner or the reservations owner can delete this reservation.\"\n        );\n\n        // Avoid multiple lookups\n        uint256[] storage reservationsInRoom = reservationsFor[roomId];\n\n        for (uint256 i = 0; i < reservationsInRoom.length; i++) {\n            // Once found, remove value\n            if (reservationsInRoom[i] == reservationId) {\n                reservationsInRoom[i] = reservationsInRoom[\n                    reservationsInRoom.length - 1\n                ];\n                reservationsInRoom.pop();\n                break;\n            }\n        }\n    }\n\n    /**\n        @dev Set canReserve = status on room\n        @notice Update the room reservation status.\n    */\n    function updateRoomReservationStatus(\n        uint256 roomId,\n        bool status\n    ) public roomExists(roomId) {\n        Room storage room = rooms[roomId];\n        // Check only the rooms owner is calling this method\n        require(\n            _msgSender() == room.owner,\n            \"RoomReservations: only the rooms owner can update reservation status.\"\n        );\n        // Make sure that canReserve does not already equal status\n        // This saves you GAS fees.\n        require(\n            room.canReserve != status,\n            \"RoomReservations: Can not set canReserve = to same status.\"\n        );\n\n        // Update can reserve status\n        room.canReserve = status;\n    }\n\n    /* Getters */\n    function getRoomsLength() public view returns (uint256) {\n        return rooms.length;\n    }\n\n    function getReservationsLength() public view returns (uint256) {\n        return reservations.length;\n    }\n\n    function getPaymentsLength() public view returns (uint256) {\n        return payments.length;\n    }\n}",
  "sourcePath": "contracts/RoomReservations.sol",
  "type": "contract"
}